{
  "contractName": "ChainLinkStub",
  "abi": [
    {
      "inputs": [
        {
          "internalType": "int256",
          "name": "_value",
          "type": "int256"
        }
      ],
      "stateMutability": "nonpayable",
      "type": "constructor"
    },
    {
      "anonymous": false,
      "inputs": [
        {
          "indexed": true,
          "internalType": "address",
          "name": "previousOwner",
          "type": "address"
        },
        {
          "indexed": true,
          "internalType": "address",
          "name": "newOwner",
          "type": "address"
        }
      ],
      "name": "OwnershipTransferred",
      "type": "event"
    },
    {
      "inputs": [],
      "name": "owner",
      "outputs": [
        {
          "internalType": "address",
          "name": "",
          "type": "address"
        }
      ],
      "stateMutability": "view",
      "type": "function"
    },
    {
      "inputs": [],
      "name": "renounceOwnership",
      "outputs": [],
      "stateMutability": "nonpayable",
      "type": "function"
    },
    {
      "inputs": [
        {
          "internalType": "address",
          "name": "newOwner",
          "type": "address"
        }
      ],
      "name": "transferOwnership",
      "outputs": [],
      "stateMutability": "nonpayable",
      "type": "function"
    },
    {
      "inputs": [],
      "name": "decimals",
      "outputs": [
        {
          "internalType": "uint8",
          "name": "",
          "type": "uint8"
        }
      ],
      "stateMutability": "view",
      "type": "function"
    },
    {
      "inputs": [],
      "name": "description",
      "outputs": [
        {
          "internalType": "string",
          "name": "",
          "type": "string"
        }
      ],
      "stateMutability": "view",
      "type": "function"
    },
    {
      "inputs": [],
      "name": "version",
      "outputs": [
        {
          "internalType": "uint256",
          "name": "",
          "type": "uint256"
        }
      ],
      "stateMutability": "view",
      "type": "function"
    },
    {
      "inputs": [
        {
          "internalType": "uint80",
          "name": "_roundId",
          "type": "uint80"
        }
      ],
      "name": "getRoundData",
      "outputs": [
        {
          "internalType": "uint80",
          "name": "roundId",
          "type": "uint80"
        },
        {
          "internalType": "int256",
          "name": "answer",
          "type": "int256"
        },
        {
          "internalType": "uint256",
          "name": "startedAt",
          "type": "uint256"
        },
        {
          "internalType": "uint256",
          "name": "updatedAt",
          "type": "uint256"
        },
        {
          "internalType": "uint80",
          "name": "answeredInRound",
          "type": "uint80"
        }
      ],
      "stateMutability": "view",
      "type": "function"
    },
    {
      "inputs": [],
      "name": "latestRoundData",
      "outputs": [
        {
          "internalType": "uint80",
          "name": "roundId",
          "type": "uint80"
        },
        {
          "internalType": "int256",
          "name": "answer",
          "type": "int256"
        },
        {
          "internalType": "uint256",
          "name": "startedAt",
          "type": "uint256"
        },
        {
          "internalType": "uint256",
          "name": "updatedAt",
          "type": "uint256"
        },
        {
          "internalType": "uint80",
          "name": "answeredInRound",
          "type": "uint80"
        }
      ],
      "stateMutability": "view",
      "type": "function"
    }
  ],
  "bytecode": "0x608060405234801561001057600080fd5b50604051610b7d380380610b7d8339818101604052810190610032919061013c565b61004e61004361005b60201b60201c565b61006360201b60201c565b8060018190555050610186565b600033905090565b60008060009054906101000a900473ffffffffffffffffffffffffffffffffffffffff169050816000806101000a81548173ffffffffffffffffffffffffffffffffffffffff021916908373ffffffffffffffffffffffffffffffffffffffff1602179055508173ffffffffffffffffffffffffffffffffffffffff168173ffffffffffffffffffffffffffffffffffffffff167f8be0079c531659141344cd1fd0a4f28419497f9722a3daafe3b4186f6b6457e060405160405180910390a35050565b6000815190506101368161016f565b92915050565b60006020828403121561014e57600080fd5b600061015c84828501610127565b91505092915050565b6000819050919050565b61017881610165565b811461018357600080fd5b50565b6109e8806101956000396000f3fe608060405234801561001057600080fd5b50600436106100885760003560e01c80638da5cb5b1161005b5780638da5cb5b146100f15780639a6fc8f51461010f578063f2fde38b14610143578063feaf968c1461015f57610088565b8063313ce5671461008d57806354fd4d50146100ab578063715018a6146100c95780637284e416146100d3575b600080fd5b610095610181565b6040516100a291906106e2565b60405180910390f35b6100b361018a565b6040516100c09190610674565b60405180910390f35b6100d1610193565b005b6100db61021b565b6040516100e89190610612565b60405180910390f35b6100f9610258565b60405161010691906105f7565b60405180910390f35b61012960048036038101906101249190610504565b610281565b60405161013a95949392919061068f565b60405180910390f35b61015d600480360381019061015891906104db565b6102b8565b005b6101676103b0565b60405161017895949392919061068f565b60405180910390f35b60006001905090565b60006001905090565b61019b6103e5565b73ffffffffffffffffffffffffffffffffffffffff166101b9610258565b73ffffffffffffffffffffffffffffffffffffffff161461020f576040517f08c379a000000000000000000000000000000000000000000000000000000000815260040161020690610654565b60405180910390fd5b61021960006103ed565b565b60606040518060400160405280600d81526020017f436861696e4c696e6b5374756200000000000000000000000000000000000000815250905090565b60008060009054906101000a900473ffffffffffffffffffffffffffffffffffffffff16905090565b600080600080600085670de0b6b3a76400006001546102a09190610719565b60018060019450945094509450945091939590929450565b6102c06103e5565b73ffffffffffffffffffffffffffffffffffffffff166102de610258565b73ffffffffffffffffffffffffffffffffffffffff1614610334576040517f08c379a000000000000000000000000000000000000000000000000000000000815260040161032b90610654565b60405180910390fd5b600073ffffffffffffffffffffffffffffffffffffffff168173ffffffffffffffffffffffffffffffffffffffff1614156103a4576040517f08c379a000000000000000000000000000000000000000000000000000000000815260040161039b90610634565b60405180910390fd5b6103ad816103ed565b50565b600080600080600080670de0b6b3a76400006001546103cf9190610719565b6001806001945094509450945094509091929394565b600033905090565b60008060009054906101000a900473ffffffffffffffffffffffffffffffffffffffff169050816000806101000a81548173ffffffffffffffffffffffffffffffffffffffff021916908373ffffffffffffffffffffffffffffffffffffffff1602179055508173ffffffffffffffffffffffffffffffffffffffff168173ffffffffffffffffffffffffffffffffffffffff167f8be0079c531659141344cd1fd0a4f28419497f9722a3daafe3b4186f6b6457e060405160405180910390a35050565b6000813590506104c081610984565b92915050565b6000813590506104d58161099b565b92915050565b6000602082840312156104ed57600080fd5b60006104fb848285016104b1565b91505092915050565b60006020828403121561051657600080fd5b6000610524848285016104c6565b91505092915050565b61053681610830565b82525050565b61054581610842565b82525050565b6000610556826106fd565b6105608185610708565b9350610570818560208601610899565b610579816108fb565b840191505092915050565b6000610591602683610708565b915061059c8261090c565b604082019050919050565b60006105b4602083610708565b91506105bf8261095b565b602082019050919050565b6105d38161086c565b82525050565b6105e281610883565b82525050565b6105f181610876565b82525050565b600060208201905061060c600083018461052d565b92915050565b6000602082019050818103600083015261062c818461054b565b905092915050565b6000602082019050818103600083015261064d81610584565b9050919050565b6000602082019050818103600083015261066d816105a7565b9050919050565b600060208201905061068960008301846105ca565b92915050565b600060a0820190506106a460008301886105d9565b6106b1602083018761053c565b6106be60408301866105ca565b6106cb60608301856105ca565b6106d860808301846105d9565b9695505050505050565b60006020820190506106f760008301846105e8565b92915050565b600081519050919050565b600082825260208201905092915050565b600061072482610842565b915061072f83610842565b9250827f7fffffffffffffffffffffffffffffffffffffffffffffffffffffffffffffff048211600084136000841316161561076e5761076d6108cc565b5b817f800000000000000000000000000000000000000000000000000000000000000005831260008412600084131616156107ab576107aa6108cc565b5b827f800000000000000000000000000000000000000000000000000000000000000005821260008413600084121616156107e8576107e76108cc565b5b827f7fffffffffffffffffffffffffffffffffffffffffffffffffffffffffffffff0582126000841260008412161615610825576108246108cc565b5b828202905092915050565b600061083b8261084c565b9050919050565b6000819050919050565b600073ffffffffffffffffffffffffffffffffffffffff82169050919050565b6000819050919050565b600060ff82169050919050565b600069ffffffffffffffffffff82169050919050565b60005b838110156108b757808201518184015260208101905061089c565b838111156108c6576000848401525b50505050565b7f4e487b7100000000000000000000000000000000000000000000000000000000600052601160045260246000fd5b6000601f19601f8301169050919050565b7f4f776e61626c653a206e6577206f776e657220697320746865207a65726f206160008201527f6464726573730000000000000000000000000000000000000000000000000000602082015250565b7f4f776e61626c653a2063616c6c6572206973206e6f7420746865206f776e6572600082015250565b61098d81610830565b811461099857600080fd5b50565b6109a481610883565b81146109af57600080fd5b5056fea264697066735822122089e7ecd77c03090555aad63f8f12d784d33c1e6209f070d26def14be052d643964736f6c63430008030033",
  "immutableReferences": {},
  "source": "// SPDX-License-Identifier: MIT\npragma solidity 0.8.3;\n\nimport '@openzeppelin/contracts/access/Ownable.sol';\nimport '@openzeppelin/contracts/token/ERC20/IERC20.sol';\nimport '@chainlink/contracts/src/v0.8/interfaces/AggregatorV3Interface.sol';\n\n\n// @dev For tests only\ncontract ChainLinkStub is AggregatorV3Interface, Ownable {\n\n    int256 value;\n\n    constructor(int256 _value) {\n        value = _value;\n    }\n\n    function decimals() override external view returns (uint8) {\n        return 1;\n    }\n\n    function description() override external view returns (string memory) {\n        return \"ChainLinkStub\";\n    }\n\n    function version() override external view returns (uint256) {\n        return 1;\n    }\n\n  \n    function getRoundData(uint80 _roundId) override external view returns (uint80 roundId, int256 answer, uint256 startedAt, uint256 updatedAt, uint80 answeredInRound) {\n        return (_roundId, value * 10 ** 18, 1, 1, 1);\n    }\n\n    function latestRoundData() override external view returns (uint80 roundId, int256 answer, uint256 startedAt, uint256 updatedAt, uint80 answeredInRound) {\n        return (0, value * 10 ** 18, 1, 1, 1);\n    }\n}",
  "sourcePath": "D:\\SEM6\\bb2\\contracts\\ChainLinkStub.sol",
  "compiler": {
    "name": "solc",
    "version": "0.8.3+commit.8d00100c.Emscripten.clang"
  },
  "schemaVersion": "3.4.7",
  "updatedAt": "2022-05-04T14:10:16.201Z",
  "devdoc": {
    "kind": "dev",
    "methods": {
      "owner()": {
        "details": "Returns the address of the current owner."
      },
      "renounceOwnership()": {
        "details": "Leaves the contract without owner. It will not be possible to call `onlyOwner` functions anymore. Can only be called by the current owner. NOTE: Renouncing ownership will leave the contract without an owner, thereby removing any functionality that is only available to the owner."
      },
      "transferOwnership(address)": {
        "details": "Transfers ownership of the contract to a new account (`newOwner`). Can only be called by the current owner."
      }
    },
    "version": 1
  },
  "userdoc": {
    "kind": "user",
    "methods": {},
    "version": 1
  }
}