{
  "contractName": "HappyChainLinkStub",
  "abi": [
    {
      "inputs": [
        {
          "internalType": "uint256",
          "name": "_k",
          "type": "uint256"
        }
      ],
      "stateMutability": "nonpayable",
      "type": "constructor"
    },
    {
      "anonymous": false,
      "inputs": [
        {
          "indexed": true,
          "internalType": "address",
          "name": "previousOwner",
          "type": "address"
        },
        {
          "indexed": true,
          "internalType": "address",
          "name": "newOwner",
          "type": "address"
        }
      ],
      "name": "OwnershipTransferred",
      "type": "event"
    },
    {
      "inputs": [],
      "name": "owner",
      "outputs": [
        {
          "internalType": "address",
          "name": "",
          "type": "address"
        }
      ],
      "stateMutability": "view",
      "type": "function"
    },
    {
      "inputs": [],
      "name": "renounceOwnership",
      "outputs": [],
      "stateMutability": "nonpayable",
      "type": "function"
    },
    {
      "inputs": [
        {
          "internalType": "address",
          "name": "newOwner",
          "type": "address"
        }
      ],
      "name": "transferOwnership",
      "outputs": [],
      "stateMutability": "nonpayable",
      "type": "function"
    },
    {
      "inputs": [],
      "name": "decimals",
      "outputs": [
        {
          "internalType": "uint8",
          "name": "",
          "type": "uint8"
        }
      ],
      "stateMutability": "view",
      "type": "function"
    },
    {
      "inputs": [],
      "name": "description",
      "outputs": [
        {
          "internalType": "string",
          "name": "",
          "type": "string"
        }
      ],
      "stateMutability": "view",
      "type": "function"
    },
    {
      "inputs": [],
      "name": "version",
      "outputs": [
        {
          "internalType": "uint256",
          "name": "",
          "type": "uint256"
        }
      ],
      "stateMutability": "view",
      "type": "function"
    },
    {
      "inputs": [
        {
          "internalType": "uint80",
          "name": "_roundId",
          "type": "uint80"
        }
      ],
      "name": "getRoundData",
      "outputs": [
        {
          "internalType": "uint80",
          "name": "roundId",
          "type": "uint80"
        },
        {
          "internalType": "int256",
          "name": "answer",
          "type": "int256"
        },
        {
          "internalType": "uint256",
          "name": "startedAt",
          "type": "uint256"
        },
        {
          "internalType": "uint256",
          "name": "updatedAt",
          "type": "uint256"
        },
        {
          "internalType": "uint80",
          "name": "answeredInRound",
          "type": "uint80"
        }
      ],
      "stateMutability": "view",
      "type": "function"
    },
    {
      "inputs": [],
      "name": "latestRoundData",
      "outputs": [
        {
          "internalType": "uint80",
          "name": "roundId",
          "type": "uint80"
        },
        {
          "internalType": "int256",
          "name": "answer",
          "type": "int256"
        },
        {
          "internalType": "uint256",
          "name": "startedAt",
          "type": "uint256"
        },
        {
          "internalType": "uint256",
          "name": "updatedAt",
          "type": "uint256"
        },
        {
          "internalType": "uint80",
          "name": "answeredInRound",
          "type": "uint80"
        }
      ],
      "stateMutability": "view",
      "type": "function"
    }
  ],
  "bytecode": "0x608060405234801561001057600080fd5b50604051610a1d380380610a1d8339818101604052810190610032919061013c565b61004e61004361005b60201b60201c565b61006360201b60201c565b8060018190555050610186565b600033905090565b60008060009054906101000a900473ffffffffffffffffffffffffffffffffffffffff169050816000806101000a81548173ffffffffffffffffffffffffffffffffffffffff021916908373ffffffffffffffffffffffffffffffffffffffff1602179055508173ffffffffffffffffffffffffffffffffffffffff168173ffffffffffffffffffffffffffffffffffffffff167f8be0079c531659141344cd1fd0a4f28419497f9722a3daafe3b4186f6b6457e060405160405180910390a35050565b6000815190506101368161016f565b92915050565b60006020828403121561014e57600080fd5b600061015c84828501610127565b91505092915050565b6000819050919050565b61017881610165565b811461018357600080fd5b50565b610888806101956000396000f3fe608060405234801561001057600080fd5b50600436106100885760003560e01c80638da5cb5b1161005b5780638da5cb5b146100f15780639a6fc8f51461010f578063f2fde38b14610143578063feaf968c1461015f57610088565b8063313ce5671461008d57806354fd4d50146100ab578063715018a6146100c95780637284e416146100d3575b600080fd5b610095610181565b6040516100a291906106c8565b60405180910390f35b6100b361018a565b6040516100c0919061065a565b60405180910390f35b6100d1610193565b005b6100db61021b565b6040516100e891906105f8565b60405180910390f35b6100f9610258565b60405161010691906105dd565b60405180910390f35b610129600480360381019061012491906104ea565b610281565b60405161013a959493929190610675565b60405180910390f35b61015d600480360381019061015891906104c1565b6102ab565b005b6101676103a3565b604051610178959493929190610675565b60405180910390f35b60006012905090565b60006001905090565b61019b6103cb565b73ffffffffffffffffffffffffffffffffffffffff166101b9610258565b73ffffffffffffffffffffffffffffffffffffffff161461020f576040517f08c379a00000000000000000000000000000000000000000000000000000000081526004016102069061063a565b60405180910390fd5b61021960006103d3565b565b60606040518060400160405280601281526020017f4861707079436861696e4c696e6b537475620000000000000000000000000000815250905090565b60008060009054906101000a900473ffffffffffffffffffffffffffffffffffffffff16905090565b600080600080600085678ac7230489e8000060018060019450945094509450945091939590929450565b6102b36103cb565b73ffffffffffffffffffffffffffffffffffffffff166102d1610258565b73ffffffffffffffffffffffffffffffffffffffff1614610327576040517f08c379a000000000000000000000000000000000000000000000000000000000815260040161031e9061063a565b60405180910390fd5b600073ffffffffffffffffffffffffffffffffffffffff168173ffffffffffffffffffffffffffffffffffffffff161415610397576040517f08c379a000000000000000000000000000000000000000000000000000000000815260040161038e9061061a565b60405180910390fd5b6103a0816103d3565b50565b600080600080600080678ac7230489e800006001806001945094509450945094509091929394565b600033905090565b60008060009054906101000a900473ffffffffffffffffffffffffffffffffffffffff169050816000806101000a81548173ffffffffffffffffffffffffffffffffffffffff021916908373ffffffffffffffffffffffffffffffffffffffff1602179055508173ffffffffffffffffffffffffffffffffffffffff168173ffffffffffffffffffffffffffffffffffffffff167f8be0079c531659141344cd1fd0a4f28419497f9722a3daafe3b4186f6b6457e060405160405180910390a35050565b6000813590506104a681610824565b92915050565b6000813590506104bb8161083b565b92915050565b6000602082840312156104d357600080fd5b60006104e184828501610497565b91505092915050565b6000602082840312156104fc57600080fd5b600061050a848285016104ac565b91505092915050565b61051c816106ff565b82525050565b61052b81610711565b82525050565b600061053c826106e3565b61054681856106ee565b9350610556818560208601610768565b61055f8161079b565b840191505092915050565b60006105776026836106ee565b9150610582826107ac565b604082019050919050565b600061059a6020836106ee565b91506105a5826107fb565b602082019050919050565b6105b98161073b565b82525050565b6105c881610752565b82525050565b6105d781610745565b82525050565b60006020820190506105f26000830184610513565b92915050565b600060208201905081810360008301526106128184610531565b905092915050565b600060208201905081810360008301526106338161056a565b9050919050565b600060208201905081810360008301526106538161058d565b9050919050565b600060208201905061066f60008301846105b0565b92915050565b600060a08201905061068a60008301886105bf565b6106976020830187610522565b6106a460408301866105b0565b6106b160608301856105b0565b6106be60808301846105bf565b9695505050505050565b60006020820190506106dd60008301846105ce565b92915050565b600081519050919050565b600082825260208201905092915050565b600061070a8261071b565b9050919050565b6000819050919050565b600073ffffffffffffffffffffffffffffffffffffffff82169050919050565b6000819050919050565b600060ff82169050919050565b600069ffffffffffffffffffff82169050919050565b60005b8381101561078657808201518184015260208101905061076b565b83811115610795576000848401525b50505050565b6000601f19601f8301169050919050565b7f4f776e61626c653a206e6577206f776e657220697320746865207a65726f206160008201527f6464726573730000000000000000000000000000000000000000000000000000602082015250565b7f4f776e61626c653a2063616c6c6572206973206e6f7420746865206f776e6572600082015250565b61082d816106ff565b811461083857600080fd5b50565b61084481610752565b811461084f57600080fd5b5056fea26469706673582212201991b8a48f3eb826f3ad1bf514c31159028dd7686658d4af1691075cd77e597764736f6c63430008030033",
  "immutableReferences": {},
  "source": "// SPDX-License-Identifier: MIT\npragma solidity 0.8.3;\n\nimport '@openzeppelin/contracts/access/Ownable.sol';\nimport '@openzeppelin/contracts/token/ERC20/IERC20.sol';\nimport '@chainlink/contracts/src/v0.8/interfaces/AggregatorV3Interface.sol';\n\n\n// @dev For tests only\ncontract HappyChainLinkStub is AggregatorV3Interface, Ownable {\n    \n    uint256 k;\n\n    constructor(uint256 _k) {\n        k = _k;\n    }\n\n    function decimals() override external view returns (uint8) {\n        return 18;\n    }\n\n    function description() override external view returns (string memory) {\n        return \"HappyChainLinkStub\";\n    }\n\n    function version() override external view returns (uint256) {\n        return 1;\n    }\n\n  \n    function getRoundData(uint80 _roundId) override external view returns (uint80 roundId, int256 answer, uint256 startedAt, uint256 updatedAt, uint80 answeredInRound) {\n        //return (_roundId, int256(block.number * 10 ** 18 / k), 1, 1, 1);\n        return (_roundId, 10 * 10**18, 1, 1, 1);\n    }\n\n    function latestRoundData() override external view returns (uint80 roundId, int256 answer, uint256 startedAt, uint256 updatedAt, uint80 answeredInRound) {\n        //return (0, int256(block.number * 10 ** 18 / k), 1, 1, 1);\n        return (0, 10 * 10**18, 1, 1, 1);\n    }\n}",
  "sourcePath": "D:\\SEM6\\bb2\\contracts\\HappyChainLinkStub.sol",
  "compiler": {
    "name": "solc",
    "version": "0.8.3+commit.8d00100c.Emscripten.clang"
  },
  "schemaVersion": "3.4.7",
  "updatedAt": "2022-05-04T14:10:16.232Z",
  "devdoc": {
    "kind": "dev",
    "methods": {
      "owner()": {
        "details": "Returns the address of the current owner."
      },
      "renounceOwnership()": {
        "details": "Leaves the contract without owner. It will not be possible to call `onlyOwner` functions anymore. Can only be called by the current owner. NOTE: Renouncing ownership will leave the contract without an owner, thereby removing any functionality that is only available to the owner."
      },
      "transferOwnership(address)": {
        "details": "Transfers ownership of the contract to a new account (`newOwner`). Can only be called by the current owner."
      }
    },
    "version": 1
  },
  "userdoc": {
    "kind": "user",
    "methods": {},
    "version": 1
  }
}