{
  "contractName": "HappyChef",
  "abi": [
    {
      "inputs": [
        {
          "internalType": "contract Happy",
          "name": "_happy",
          "type": "address"
        },
        {
          "internalType": "address",
          "name": "_happyPriceFeed",
          "type": "address"
        }
      ],
      "stateMutability": "nonpayable",
      "type": "constructor"
    },
    {
      "anonymous": false,
      "inputs": [
        {
          "indexed": true,
          "internalType": "address",
          "name": "previousOwner",
          "type": "address"
        },
        {
          "indexed": true,
          "internalType": "address",
          "name": "newOwner",
          "type": "address"
        }
      ],
      "name": "OwnershipTransferred",
      "type": "event"
    },
    {
      "anonymous": false,
      "inputs": [
        {
          "indexed": false,
          "internalType": "uint256",
          "name": "poolId",
          "type": "uint256"
        },
        {
          "indexed": false,
          "internalType": "address",
          "name": "token",
          "type": "address"
        },
        {
          "indexed": false,
          "internalType": "address",
          "name": "priceFeed",
          "type": "address"
        }
      ],
      "name": "PoolAdded",
      "type": "event"
    },
    {
      "anonymous": false,
      "inputs": [
        {
          "indexed": false,
          "internalType": "uint256",
          "name": "poolId",
          "type": "uint256"
        },
        {
          "indexed": false,
          "internalType": "contract ERC20",
          "name": "token",
          "type": "address"
        },
        {
          "indexed": false,
          "internalType": "address",
          "name": "priceFeed",
          "type": "address"
        }
      ],
      "name": "PriceFeedUpdated",
      "type": "event"
    },
    {
      "anonymous": false,
      "inputs": [
        {
          "indexed": false,
          "internalType": "address",
          "name": "user",
          "type": "address"
        },
        {
          "indexed": false,
          "internalType": "uint256",
          "name": "poolId",
          "type": "uint256"
        },
        {
          "indexed": false,
          "internalType": "uint256",
          "name": "amount",
          "type": "uint256"
        }
      ],
      "name": "Redeemed",
      "type": "event"
    },
    {
      "anonymous": false,
      "inputs": [
        {
          "indexed": false,
          "internalType": "address",
          "name": "user",
          "type": "address"
        },
        {
          "indexed": false,
          "internalType": "uint256",
          "name": "poolId",
          "type": "uint256"
        },
        {
          "indexed": false,
          "internalType": "uint256",
          "name": "amount",
          "type": "uint256"
        }
      ],
      "name": "Staked",
      "type": "event"
    },
    {
      "anonymous": false,
      "inputs": [
        {
          "indexed": false,
          "internalType": "address",
          "name": "user",
          "type": "address"
        },
        {
          "indexed": false,
          "internalType": "uint256",
          "name": "poolId",
          "type": "uint256"
        },
        {
          "indexed": false,
          "internalType": "uint256",
          "name": "amount",
          "type": "uint256"
        }
      ],
      "name": "Unstaked",
      "type": "event"
    },
    {
      "inputs": [],
      "name": "happy",
      "outputs": [
        {
          "internalType": "contract Happy",
          "name": "",
          "type": "address"
        }
      ],
      "stateMutability": "view",
      "type": "function"
    },
    {
      "inputs": [],
      "name": "happyPriceFeed",
      "outputs": [
        {
          "internalType": "contract AggregatorV3Interface",
          "name": "",
          "type": "address"
        }
      ],
      "stateMutability": "view",
      "type": "function"
    },
    {
      "inputs": [],
      "name": "owner",
      "outputs": [
        {
          "internalType": "address",
          "name": "",
          "type": "address"
        }
      ],
      "stateMutability": "view",
      "type": "function"
    },
    {
      "inputs": [
        {
          "internalType": "uint256",
          "name": "",
          "type": "uint256"
        }
      ],
      "name": "pools",
      "outputs": [
        {
          "internalType": "contract ERC20",
          "name": "token",
          "type": "address"
        },
        {
          "internalType": "uint256",
          "name": "yield",
          "type": "uint256"
        },
        {
          "internalType": "contract AggregatorV3Interface",
          "name": "priceFeed",
          "type": "address"
        }
      ],
      "stateMutability": "view",
      "type": "function"
    },
    {
      "inputs": [],
      "name": "renounceOwnership",
      "outputs": [],
      "stateMutability": "nonpayable",
      "type": "function"
    },
    {
      "inputs": [
        {
          "internalType": "address",
          "name": "newOwner",
          "type": "address"
        }
      ],
      "name": "transferOwnership",
      "outputs": [],
      "stateMutability": "nonpayable",
      "type": "function"
    },
    {
      "inputs": [
        {
          "internalType": "uint256",
          "name": "",
          "type": "uint256"
        },
        {
          "internalType": "address",
          "name": "",
          "type": "address"
        }
      ],
      "name": "users",
      "outputs": [
        {
          "internalType": "uint256",
          "name": "amount",
          "type": "uint256"
        },
        {
          "internalType": "uint256",
          "name": "depositDate",
          "type": "uint256"
        }
      ],
      "stateMutability": "view",
      "type": "function"
    },
    {
      "inputs": [],
      "name": "getNbPools",
      "outputs": [
        {
          "internalType": "uint256",
          "name": "",
          "type": "uint256"
        }
      ],
      "stateMutability": "view",
      "type": "function"
    },
    {
      "inputs": [
        {
          "internalType": "uint256",
          "name": "poolId",
          "type": "uint256"
        },
        {
          "internalType": "address",
          "name": "user",
          "type": "address"
        }
      ],
      "name": "getUserBalance",
      "outputs": [
        {
          "internalType": "uint256",
          "name": "",
          "type": "uint256"
        }
      ],
      "stateMutability": "view",
      "type": "function"
    },
    {
      "inputs": [
        {
          "internalType": "uint256",
          "name": "poolId",
          "type": "uint256"
        }
      ],
      "name": "getPoolBalance",
      "outputs": [
        {
          "internalType": "uint256",
          "name": "",
          "type": "uint256"
        }
      ],
      "stateMutability": "view",
      "type": "function"
    },
    {
      "inputs": [
        {
          "internalType": "address",
          "name": "_token",
          "type": "address"
        },
        {
          "internalType": "address",
          "name": "_priceFeed",
          "type": "address"
        },
        {
          "internalType": "uint256",
          "name": "_yield",
          "type": "uint256"
        }
      ],
      "name": "addPool",
      "outputs": [],
      "stateMutability": "nonpayable",
      "type": "function"
    },
    {
      "inputs": [
        {
          "internalType": "uint256",
          "name": "_poolId",
          "type": "uint256"
        },
        {
          "internalType": "address",
          "name": "priceFeed",
          "type": "address"
        }
      ],
      "name": "updatePriceFeed",
      "outputs": [],
      "stateMutability": "nonpayable",
      "type": "function"
    },
    {
      "inputs": [
        {
          "internalType": "uint256",
          "name": "_poolId",
          "type": "uint256"
        },
        {
          "internalType": "uint256",
          "name": "_amount",
          "type": "uint256"
        }
      ],
      "name": "stake",
      "outputs": [],
      "stateMutability": "nonpayable",
      "type": "function"
    },
    {
      "inputs": [
        {
          "internalType": "uint256",
          "name": "_poolId",
          "type": "uint256"
        },
        {
          "internalType": "address",
          "name": "_user",
          "type": "address"
        }
      ],
      "name": "calculateRewardDebug",
      "outputs": [
        {
          "internalType": "uint256",
          "name": "userAmount",
          "type": "uint256"
        },
        {
          "internalType": "uint256",
          "name": "delta",
          "type": "uint256"
        },
        {
          "internalType": "uint256",
          "name": "yield",
          "type": "uint256"
        },
        {
          "internalType": "uint256",
          "name": "lastPrice",
          "type": "uint256"
        },
        {
          "internalType": "uint256",
          "name": "lastHappyPrice",
          "type": "uint256"
        }
      ],
      "stateMutability": "view",
      "type": "function"
    },
    {
      "inputs": [
        {
          "internalType": "uint256",
          "name": "_poolId",
          "type": "uint256"
        },
        {
          "internalType": "uint256",
          "name": "_amount",
          "type": "uint256"
        }
      ],
      "name": "unstake",
      "outputs": [],
      "stateMutability": "nonpayable",
      "type": "function"
    },
    {
      "inputs": [
        {
          "internalType": "uint256",
          "name": "_poolId",
          "type": "uint256"
        },
        {
          "internalType": "address",
          "name": "_user",
          "type": "address"
        }
      ],
      "name": "pendingReward",
      "outputs": [
        {
          "internalType": "uint256",
          "name": "",
          "type": "uint256"
        }
      ],
      "stateMutability": "view",
      "type": "function"
    },
    {
      "inputs": [
        {
          "internalType": "uint256",
          "name": "_poolId",
          "type": "uint256"
        }
      ],
      "name": "getLastPrice",
      "outputs": [
        {
          "internalType": "uint256",
          "name": "",
          "type": "uint256"
        }
      ],
      "stateMutability": "view",
      "type": "function"
    },
    {
      "inputs": [],
      "name": "getLastHappyPrice",
      "outputs": [
        {
          "internalType": "uint256",
          "name": "",
          "type": "uint256"
        }
      ],
      "stateMutability": "view",
      "type": "function"
    }
  ],
  "bytecode": "0x60806040523480156200001157600080fd5b5060405162002bdf38038062002bdf8339818101604052810190620000379190620001e2565b620000576200004b620000e860201b60201c565b620000f060201b60201c565b6001808190555081600260006101000a81548173ffffffffffffffffffffffffffffffffffffffff021916908373ffffffffffffffffffffffffffffffffffffffff16021790555080600560006101000a81548173ffffffffffffffffffffffffffffffffffffffff021916908373ffffffffffffffffffffffffffffffffffffffff16021790555050506200029f565b600033905090565b60008060009054906101000a900473ffffffffffffffffffffffffffffffffffffffff169050816000806101000a81548173ffffffffffffffffffffffffffffffffffffffff021916908373ffffffffffffffffffffffffffffffffffffffff1602179055508173ffffffffffffffffffffffffffffffffffffffff168173ffffffffffffffffffffffffffffffffffffffff167f8be0079c531659141344cd1fd0a4f28419497f9722a3daafe3b4186f6b6457e060405160405180910390a35050565b600081519050620001c5816200026b565b92915050565b600081519050620001dc8162000285565b92915050565b60008060408385031215620001f657600080fd5b60006200020685828601620001cb565b92505060206200021985828601620001b4565b9150509250929050565b600062000230826200024b565b9050919050565b6000620002448262000223565b9050919050565b600073ffffffffffffffffffffffffffffffffffffffff82169050919050565b620002768162000223565b81146200028257600080fd5b50565b620002908162000237565b81146200029c57600080fd5b50565b61293080620002af6000396000f3fe608060405234801561001057600080fd5b50600436106101165760003560e01c806398969e82116100a2578063b9d02df411610071578063b9d02df4146102d3578063cdfb6cf314610304578063e0d7cb6f14610334578063ed1375d514610352578063f2fde38b1461038257610116565b806398969e82146102395780639e2c8a5b14610269578063ac4afa3814610285578063acfc827e146102b757610116565b8063715018a6116100e9578063715018a6146101bb5780637b0472f0146101c55780637e29d6c2146101e157806386a7a170146101fd5780638da5cb5b1461021b57610116565b806311df50d81461011b578063344e516d1461013957806352918b761461016d57806365fa2f7f1461018b575b600080fd5b61012361039e565b604051610130919061200a565b60405180910390f35b610153600480360381019061014e9190611cdd565b6103c4565b604051610164959493929190612229565b60405180910390f35b6101756104ac565b6040516101829190612177565b60405180910390f35b6101a560048036038101906101a09190611c8b565b6104b9565b6040516101b29190612177565b60405180910390f35b6101c361077e565b005b6101df60048036038101906101da9190611d19565b610806565b005b6101fb60048036038101906101f69190611c13565b610baa565b005b610205610e92565b6040516102129190612177565b60405180910390f35b610223610f42565b6040516102309190611f58565b60405180910390f35b610253600480360381019061024e9190611cdd565b610f6b565b6040516102609190612177565b60405180910390f35b610283600480360381019061027e9190611d19565b61106b565b005b61029f600480360381019061029a9190611c8b565b611313565b6040516102ae93929190612025565b60405180910390f35b6102d160048036038101906102cc9190611cdd565b61138d565b005b6102ed60048036038101906102e89190611cdd565b611586565b6040516102fb929190612200565b60405180910390f35b61031e60048036038101906103199190611cdd565b6115b7565b60405161032b9190612177565b60405180910390f35b61033c611615565b604051610349919061205c565b60405180910390f35b61036c60048036038101906103679190611c8b565b61163b565b6040516103799190612177565b60405180910390f35b61039c60048036038101906103979190611bea565b611738565b005b600560009054906101000a900473ffffffffffffffffffffffffffffffffffffffff1681565b60008060008060008060038881548110610407577f4e487b7100000000000000000000000000000000000000000000000000000000600052603260045260246000fd5b906000526020600020906003020190506000600460008a815260200190815260200160002060008973ffffffffffffffffffffffffffffffffffffffff1673ffffffffffffffffffffffffffffffffffffffff16815260200190815260200160002090508060000154965080600101544261048291906124df565b955081600101549450610494896104b9565b935061049e610e92565b925050509295509295909350565b6000600380549050905090565b6000816003805490508110610503576040517f08c379a00000000000000000000000000000000000000000000000000000000081526004016104fa906120d7565b60405180910390fd5b60006003848154811061053f577f4e487b7100000000000000000000000000000000000000000000000000000000600052603260045260246000fd5b9060005260206000209060030201905060008160020160009054906101000a900473ffffffffffffffffffffffffffffffffffffffff1673ffffffffffffffffffffffffffffffffffffffff1663feaf968c6040518163ffffffff1660e01b815260040160a06040518083038186803b1580156105bb57600080fd5b505afa1580156105cf573d6000803e3d6000fd5b505050506040513d601f19601f820116820180604052508101906105f39190611d55565b505050915050600081905060128360000160009054906101000a900473ffffffffffffffffffffffffffffffffffffffff1673ffffffffffffffffffffffffffffffffffffffff1663313ce5676040518163ffffffff1660e01b815260040160206040518083038186803b15801561066a57600080fd5b505afa15801561067e573d6000803e3d6000fd5b505050506040513d601f19601f820116820180604052508101906106a29190611dcc565b60ff1614610772578260000160009054906101000a900473ffffffffffffffffffffffffffffffffffffffff1673ffffffffffffffffffffffffffffffffffffffff1663313ce5676040518163ffffffff1660e01b815260040160206040518083038186803b15801561071457600080fd5b505afa158015610728573d6000803e3d6000fd5b505050506040513d601f19601f8201168201806040525081019061074c9190611dcc565b60126107589190612513565b600a6107649190612367565b8161076f9190612485565b90505b80945050505050919050565b610786611830565b73ffffffffffffffffffffffffffffffffffffffff166107a4610f42565b73ffffffffffffffffffffffffffffffffffffffff16146107fa576040517f08c379a00000000000000000000000000000000000000000000000000000000081526004016107f190612117565b60405180910390fd5b6108046000611838565b565b81600380549050811061084e576040517f08c379a0000000000000000000000000000000000000000000000000000000008152600401610845906120d7565b60405180910390fd5b8160008111610892576040517f08c379a0000000000000000000000000000000000000000000000000000000008152600401610889906120b7565b60405180910390fd5b600260015414156108d8576040517f08c379a00000000000000000000000000000000000000000000000000000000081526004016108cf90612157565b60405180910390fd5b600260018190555060006003858154811061091c577f4e487b7100000000000000000000000000000000000000000000000000000000600052603260045260246000fd5b9060005260206000209060030201905060006004600087815260200190815260200160002060003373ffffffffffffffffffffffffffffffffffffffff1673ffffffffffffffffffffffffffffffffffffffff1681526020019081526020016000209050848260000160009054906101000a900473ffffffffffffffffffffffffffffffffffffffff1673ffffffffffffffffffffffffffffffffffffffff166370a08231336040518263ffffffff1660e01b81526004016109de9190611f58565b60206040518083038186803b1580156109f657600080fd5b505afa158015610a0a573d6000803e3d6000fd5b505050506040513d601f19601f82011682018060405250810190610a2e9190611cb4565b1015610a6f576040517f08c379a0000000000000000000000000000000000000000000000000000000008152600401610a66906120f7565b60405180910390fd5b600081600001541115610a8857610a878683836118fc565b5b84816000016000828254610a9c919061228d565b925050819055504281600101819055508160000160009054906101000a900473ffffffffffffffffffffffffffffffffffffffff1673ffffffffffffffffffffffffffffffffffffffff166323b872dd3330886040518463ffffffff1660e01b8152600401610b0d93929190611f73565b602060405180830381600087803b158015610b2757600080fd5b505af1158015610b3b573d6000803e3d6000fd5b505050506040513d601f19601f82011682018060405250810190610b5f9190611c62565b507f1449c6dd7851abc30abf37f57715f492010519147cc2652fbc38202c18a6ee90338787604051610b9393929190611fd3565b60405180910390a150506001808190555050505050565b610bb2611830565b73ffffffffffffffffffffffffffffffffffffffff16610bd0610f42565b73ffffffffffffffffffffffffffffffffffffffff1614610c26576040517f08c379a0000000000000000000000000000000000000000000000000000000008152600401610c1d90612117565b60405180910390fd5b6000805b600380549050811015610cf2578473ffffffffffffffffffffffffffffffffffffffff1660038281548110610c88577f4e487b7100000000000000000000000000000000000000000000000000000000600052603260045260246000fd5b906000526020600020906003020160000160009054906101000a900473ffffffffffffffffffffffffffffffffffffffff1673ffffffffffffffffffffffffffffffffffffffff161415610cdf5760019150610cf2565b8080610cea90612628565b915050610c2a565b508015610d34576040517f08c379a0000000000000000000000000000000000000000000000000000000008152600401610d2b90612137565b60405180910390fd5b600360405180606001604052808673ffffffffffffffffffffffffffffffffffffffff1681526020018481526020018573ffffffffffffffffffffffffffffffffffffffff16815250908060018154018082558091505060019003906000526020600020906003020160009091909190915060008201518160000160006101000a81548173ffffffffffffffffffffffffffffffffffffffff021916908373ffffffffffffffffffffffffffffffffffffffff1602179055506020820151816001015560408201518160020160006101000a81548173ffffffffffffffffffffffffffffffffffffffff021916908373ffffffffffffffffffffffffffffffffffffffff16021790555050507ff526af69faf759a24b780dee9d979f542b6a5e8bfa39c7b04fcce83cb9982b8a6001600380549050610e7391906124df565b8585604051610e8493929190612192565b60405180910390a150505050565b600080600560009054906101000a900473ffffffffffffffffffffffffffffffffffffffff1673ffffffffffffffffffffffffffffffffffffffff1663feaf968c6040518163ffffffff1660e01b815260040160a06040518083038186803b158015610efd57600080fd5b505afa158015610f11573d6000803e3d6000fd5b505050506040513d601f19601f82011682018060405250810190610f359190611d55565b5050509150508091505090565b60008060009054906101000a900473ffffffffffffffffffffffffffffffffffffffff16905090565b6000826003805490508110610fb5576040517f08c379a0000000000000000000000000000000000000000000000000000000008152600401610fac906120d7565b60405180910390fd5b600060038581548110610ff1577f4e487b7100000000000000000000000000000000000000000000000000000000600052603260045260246000fd5b9060005260206000209060030201905060006004600087815260200190815260200160002060008673ffffffffffffffffffffffffffffffffffffffff1673ffffffffffffffffffffffffffffffffffffffff1681526020019081526020016000209050611060868383611a9e565b935050505092915050565b8160038054905081106110b3576040517f08c379a00000000000000000000000000000000000000000000000000000000081526004016110aa906120d7565b60405180910390fd5b600260015414156110f9576040517f08c379a00000000000000000000000000000000000000000000000000000000081526004016110f090612157565b60405180910390fd5b600260018190555060006003848154811061113d577f4e487b7100000000000000000000000000000000000000000000000000000000600052603260045260246000fd5b9060005260206000209060030201905060006004600086815260200190815260200160002060003373ffffffffffffffffffffffffffffffffffffffff1673ffffffffffffffffffffffffffffffffffffffff168152602001908152602001600020905080600001548411156111e8576040517f08c379a00000000000000000000000000000000000000000000000000000000081526004016111df90612077565b60405180910390fd5b6111f38583836118fc565b60008411156112ca578381600001600082825461121091906124df565b925050819055508160000160009054906101000a900473ffffffffffffffffffffffffffffffffffffffff1673ffffffffffffffffffffffffffffffffffffffff1663a9059cbb33866040518363ffffffff1660e01b8152600401611276929190611faa565b602060405180830381600087803b15801561129057600080fd5b505af11580156112a4573d6000803e3d6000fd5b505050506040513d601f19601f820116820180604052508101906112c89190611c62565b505b7f7fc4727e062e336010f2c282598ef5f14facb3de68cf8195c2f23e1454b2b74e3386866040516112fd93929190611fd3565b60405180910390a1505060018081905550505050565b6003818154811061132357600080fd5b90600052602060002090600302016000915090508060000160009054906101000a900473ffffffffffffffffffffffffffffffffffffffff16908060010154908060020160009054906101000a900473ffffffffffffffffffffffffffffffffffffffff16905083565b8160038054905081106113d5576040517f08c379a00000000000000000000000000000000000000000000000000000000081526004016113cc906120d7565b60405180910390fd5b6113dd611830565b73ffffffffffffffffffffffffffffffffffffffff166113fb610f42565b73ffffffffffffffffffffffffffffffffffffffff1614611451576040517f08c379a000000000000000000000000000000000000000000000000000000000815260040161144890612117565b60405180910390fd5b816003848154811061148c577f4e487b7100000000000000000000000000000000000000000000000000000000600052603260045260246000fd5b906000526020600020906003020160020160006101000a81548173ffffffffffffffffffffffffffffffffffffffff021916908373ffffffffffffffffffffffffffffffffffffffff1602179055507fc3e39387fdacfa0aa44a6d39dd701900d533b3e515d42054f6389321a06af71e8360038581548110611537577f4e487b7100000000000000000000000000000000000000000000000000000000600052603260045260246000fd5b906000526020600020906003020160000160009054906101000a900473ffffffffffffffffffffffffffffffffffffffff1684604051611579939291906121c9565b60405180910390a1505050565b6004602052816000526040600020602052806000526040600020600091509150508060000154908060010154905082565b60006004600084815260200190815260200160002060008373ffffffffffffffffffffffffffffffffffffffff1673ffffffffffffffffffffffffffffffffffffffff16815260200190815260200160002060000154905092915050565b600260009054906101000a900473ffffffffffffffffffffffffffffffffffffffff1681565b600060038281548110611677577f4e487b7100000000000000000000000000000000000000000000000000000000600052603260045260246000fd5b906000526020600020906003020160000160009054906101000a900473ffffffffffffffffffffffffffffffffffffffff1673ffffffffffffffffffffffffffffffffffffffff166370a08231306040518263ffffffff1660e01b81526004016116e19190611f58565b60206040518083038186803b1580156116f957600080fd5b505afa15801561170d573d6000803e3d6000fd5b505050506040513d601f19601f820116820180604052508101906117319190611cb4565b9050919050565b611740611830565b73ffffffffffffffffffffffffffffffffffffffff1661175e610f42565b73ffffffffffffffffffffffffffffffffffffffff16146117b4576040517f08c379a00000000000000000000000000000000000000000000000000000000081526004016117ab90612117565b60405180910390fd5b600073ffffffffffffffffffffffffffffffffffffffff168173ffffffffffffffffffffffffffffffffffffffff161415611824576040517f08c379a000000000000000000000000000000000000000000000000000000000815260040161181b90612097565b60405180910390fd5b61182d81611838565b50565b600033905090565b60008060009054906101000a900473ffffffffffffffffffffffffffffffffffffffff169050816000806101000a81548173ffffffffffffffffffffffffffffffffffffffff021916908373ffffffffffffffffffffffffffffffffffffffff1602179055508173ffffffffffffffffffffffffffffffffffffffff168173ffffffffffffffffffffffffffffffffffffffff167f8be0079c531659141344cd1fd0a4f28419497f9722a3daafe3b4186f6b6457e060405160405180910390a35050565b6000611909848484611a9e565b90506000811115611a9857600260009054906101000a900473ffffffffffffffffffffffffffffffffffffffff1673ffffffffffffffffffffffffffffffffffffffff166340c10f1930836040518363ffffffff1660e01b8152600401611971929190611faa565b600060405180830381600087803b15801561198b57600080fd5b505af115801561199f573d6000803e3d6000fd5b50505050600260009054906101000a900473ffffffffffffffffffffffffffffffffffffffff1673ffffffffffffffffffffffffffffffffffffffff1663a9059cbb33836040518363ffffffff1660e01b8152600401611a00929190611faa565b602060405180830381600087803b158015611a1a57600080fd5b505af1158015611a2e573d6000803e3d6000fd5b505050506040513d601f19601f82011682018060405250810190611a529190611c62565b504282600101819055507ff3a670cd3af7d64b488926880889d08a8585a138ff455227af6737339a1ec262338583604051611a8f93929190611fd3565b60405180910390a15b50505050565b600080611aa9610e92565b611ab2866104b9565b61016d6064600188600101546018603c808b6001015442611ad391906124df565b620186a08d60000154611ae69190612485565b611af09190612485565b611afa91906122e3565b611b0491906122e3565b611b0e91906122e3565b611b189190612485565b611b2291906122e3565b611b2c91906122e3565b611b3691906122e3565b611b409190612485565b611b4a91906122e3565b9050809150509392505050565b600081359050611b6681612870565b92915050565b600081519050611b7b81612887565b92915050565b600081519050611b908161289e565b92915050565b600081359050611ba5816128b5565b92915050565b600081519050611bba816128b5565b92915050565b600081519050611bcf816128e3565b92915050565b600081519050611be4816128cc565b92915050565b600060208284031215611bfc57600080fd5b6000611c0a84828501611b57565b91505092915050565b600080600060608486031215611c2857600080fd5b6000611c3686828701611b57565b9350506020611c4786828701611b57565b9250506040611c5886828701611b96565b9150509250925092565b600060208284031215611c7457600080fd5b6000611c8284828501611b6c565b91505092915050565b600060208284031215611c9d57600080fd5b6000611cab84828501611b96565b91505092915050565b600060208284031215611cc657600080fd5b6000611cd484828501611bab565b91505092915050565b60008060408385031215611cf057600080fd5b6000611cfe85828601611b96565b9250506020611d0f85828601611b57565b9150509250929050565b60008060408385031215611d2c57600080fd5b6000611d3a85828601611b96565b9250506020611d4b85828601611b96565b9150509250929050565b600080600080600060a08688031215611d6d57600080fd5b6000611d7b88828901611bc0565b9550506020611d8c88828901611b81565b9450506040611d9d88828901611bab565b9350506060611dae88828901611bab565b9250506080611dbf88828901611bc0565b9150509295509295909350565b600060208284031215611dde57600080fd5b6000611dec84828501611bd5565b91505092915050565b611dfe81612547565b82525050565b611e0d816125bc565b82525050565b611e1c816125e0565b82525050565b611e2b81612604565b82525050565b6000611e3e601a8361227c565b9150611e49826126dc565b602082019050919050565b6000611e6160268361227c565b9150611e6c82612705565b604082019050919050565b6000611e8460118361227c565b9150611e8f82612754565b602082019050919050565b6000611ea7600e8361227c565b9150611eb28261277d565b602082019050919050565b6000611eca60148361227c565b9150611ed5826127a6565b602082019050919050565b6000611eed60208361227c565b9150611ef8826127cf565b602082019050919050565b6000611f1060248361227c565b9150611f1b826127f8565b604082019050919050565b6000611f33601f8361227c565b9150611f3e82612847565b602082019050919050565b611f528161258f565b82525050565b6000602082019050611f6d6000830184611df5565b92915050565b6000606082019050611f886000830186611df5565b611f956020830185611df5565b611fa26040830184611f49565b949350505050565b6000604082019050611fbf6000830185611df5565b611fcc6020830184611f49565b9392505050565b6000606082019050611fe86000830186611df5565b611ff56020830185611f49565b6120026040830184611f49565b949350505050565b600060208201905061201f6000830184611e04565b92915050565b600060608201905061203a6000830186611e13565b6120476020830185611f49565b6120546040830184611e04565b949350505050565b60006020820190506120716000830184611e22565b92915050565b6000602082019050818103600083015261209081611e31565b9050919050565b600060208201905081810360008301526120b081611e54565b9050919050565b600060208201905081810360008301526120d081611e77565b9050919050565b600060208201905081810360008301526120f081611e9a565b9050919050565b6000602082019050818103600083015261211081611ebd565b9050919050565b6000602082019050818103600083015261213081611ee0565b9050919050565b6000602082019050818103600083015261215081611f03565b9050919050565b6000602082019050818103600083015261217081611f26565b9050919050565b600060208201905061218c6000830184611f49565b92915050565b60006060820190506121a76000830186611f49565b6121b46020830185611df5565b6121c16040830184611df5565b949350505050565b60006060820190506121de6000830186611f49565b6121eb6020830185611e13565b6121f86040830184611df5565b949350505050565b60006040820190506122156000830185611f49565b6122226020830184611f49565b9392505050565b600060a08201905061223e6000830188611f49565b61224b6020830187611f49565b6122586040830186611f49565b6122656060830185611f49565b6122726080830184611f49565b9695505050505050565b600082825260208201905092915050565b60006122988261258f565b91506122a38361258f565b9250827fffffffffffffffffffffffffffffffffffffffffffffffffffffffffffffffff038211156122d8576122d7612671565b5b828201905092915050565b60006122ee8261258f565b91506122f98361258f565b925082612309576123086126a0565b5b828204905092915050565b6000808291508390505b600185111561235e5780860481111561233a57612339612671565b5b60018516156123495780820291505b8081029050612357856126cf565b945061231e565b94509492505050565b60006123728261258f565b915061237d83612599565b92506123aa7fffffffffffffffffffffffffffffffffffffffffffffffffffffffffffffffff84846123b2565b905092915050565b6000826123c2576001905061247e565b816123d0576000905061247e565b81600181146123e657600281146123f05761241f565b600191505061247e565b60ff84111561240257612401612671565b5b8360020a91508482111561241957612418612671565b5b5061247e565b5060208310610133831016604e8410600b84101617156124545782820a90508381111561244f5761244e612671565b5b61247e565b6124618484846001612314565b9250905081840481111561247857612477612671565b5b81810290505b9392505050565b60006124908261258f565b915061249b8361258f565b9250817fffffffffffffffffffffffffffffffffffffffffffffffffffffffffffffffff04831182151516156124d4576124d3612671565b5b828202905092915050565b60006124ea8261258f565b91506124f58361258f565b92508282101561250857612507612671565b5b828203905092915050565b600061251e82612599565b915061252983612599565b92508282101561253c5761253b612671565b5b828203905092915050565b60006125528261256f565b9050919050565b60008115159050919050565b6000819050919050565b600073ffffffffffffffffffffffffffffffffffffffff82169050919050565b6000819050919050565b600060ff82169050919050565b600069ffffffffffffffffffff82169050919050565b60006125c7826125ce565b9050919050565b60006125d98261256f565b9050919050565b60006125eb826125f2565b9050919050565b60006125fd8261256f565b9050919050565b600061260f82612616565b9050919050565b60006126218261256f565b9050919050565b60006126338261258f565b91507fffffffffffffffffffffffffffffffffffffffffffffffffffffffffffffffff82141561266657612665612671565b5b600182019050919050565b7f4e487b7100000000000000000000000000000000000000000000000000000000600052601160045260246000fd5b7f4e487b7100000000000000000000000000000000000000000000000000000000600052601260045260246000fd5b60008160011c9050919050565b7f496e73756666696369656e74207374616b656420616d6f756e74000000000000600082015250565b7f4f776e61626c653a206e6577206f776e657220697320746865207a65726f206160008201527f6464726573730000000000000000000000000000000000000000000000000000602082015250565b7f416d6f756e74206d757374206265203e30000000000000000000000000000000600082015250565b7f496e76616c696420706f6f6c4964000000000000000000000000000000000000600082015250565b7f496e73756666696369656e742062616c616e6365000000000000000000000000600082015250565b7f4f776e61626c653a2063616c6c6572206973206e6f7420746865206f776e6572600082015250565b7f506f6f6c2077697468207468697320746f6b656e20616c72656164792065786960008201527f7374732e00000000000000000000000000000000000000000000000000000000602082015250565b7f5265656e7472616e637947756172643a207265656e7472616e742063616c6c00600082015250565b61287981612547565b811461288457600080fd5b50565b61289081612559565b811461289b57600080fd5b50565b6128a781612565565b81146128b257600080fd5b50565b6128be8161258f565b81146128c957600080fd5b50565b6128d581612599565b81146128e057600080fd5b50565b6128ec816125a6565b81146128f757600080fd5b5056fea2646970667358221220899ad432dced2c7cf5cc0d7bc21eb0c64a885fdf06d515ef2b702c3dbf28f7ea64736f6c63430008030033",
  "immutableReferences": {},
  "source": "// SPDX-License-Identifier: MIT\npragma solidity 0.8.3;\n\nimport '@openzeppelin/contracts/access/Ownable.sol';\nimport '@openzeppelin/contracts/security/ReentrancyGuard.sol';\nimport '@openzeppelin/contracts/token/ERC20/ERC20.sol';\nimport '@chainlink/contracts/src/v0.8/interfaces/AggregatorV3Interface.sol';\n\nimport './Happy.sol';\n\n\ncontract HappyChef is Ownable, ReentrancyGuard {\n\n    struct UserInfo {\n        uint256 amount;         // Amount of staked token provided\n        uint256 depositDate;    // Deposit date for interest calculation\n    }\n\n    struct PoolInfo {\n        ERC20 token;               // Address of the staked token\n        uint256 yield;              // Percentage yield for the pool, with 2 decimals\n        AggregatorV3Interface priceFeed;    // ChainLink oracle for the staked token\n    }\n\n    // The reward token\n    Happy public happy;\n\n    // The staking pools\n    PoolInfo[] public pools;\n\n    // For each pool, user info\n    mapping (uint256 => mapping(address => UserInfo)) public users;\n\n    // Price feed for the reward token\n    AggregatorV3Interface public happyPriceFeed;\n\n    event PoolAdded(uint256 poolId, address token, address priceFeed);\n    event PriceFeedUpdated(uint256 poolId, ERC20 token, address priceFeed);\n    event Staked(address user, uint256 poolId, uint256 amount);\n    event Unstaked(address user, uint256 poolId, uint256 amount);\n    event Redeemed(address user, uint256 poolId, uint256 amount);\n\n\n    // Check that the pool id is in the array range.\n    modifier validPool(uint256 _poolId) {\n        require(_poolId < pools.length, \"Invalid poolId\");\n        _;\n    }\n\n\n    modifier validAmount(uint256 _amount) {\n        require(_amount > 0, \"Amount must be >0\");\n        _;\n    }\n\n\n    constructor(Happy _happy, address _happyPriceFeed) {\n        happy = _happy;\n        happyPriceFeed = AggregatorV3Interface(_happyPriceFeed);\n    }\n\n\n    function getNbPools() external view returns (uint256) {\n        return pools.length;\n    }\n\n\n    function getUserBalance(uint256 poolId, address user) external view returns (uint256) {\n        return users[poolId][user].amount;\n    }\n\n\n    function getPoolBalance(uint256 poolId) external view returns (uint256) {\n        return pools[poolId].token.balanceOf(address(this));\n    }\n\n\n    function addPool(address _token, address _priceFeed, uint256 _yield) external onlyOwner {\n        // Check if pool already added\n        bool found = false;\n        for (uint i = 0; i < pools.length; i++) {\n            if (pools[i].token == IERC20(_token)) {\n                found = true;\n                break;\n            }\n        }\n        require(!found, \"Pool with this token already exists.\");\n\n        pools.push(PoolInfo({\n            token: ERC20(_token),\n            yield: _yield,\n            priceFeed: AggregatorV3Interface(_priceFeed)\n        }));\n\n        emit PoolAdded(pools.length - 1, _token, _priceFeed);\n    }\n\n\n    function updatePriceFeed(uint256 _poolId, address priceFeed) external validPool(_poolId) onlyOwner {\n        pools[_poolId].priceFeed = AggregatorV3Interface(priceFeed);\n\n        emit PriceFeedUpdated(_poolId, pools[_poolId].token, priceFeed);\n    }\n\n    \n    // Token approval is needed before calling this function.\n    function stake(uint256 _poolId, uint256 _amount) external validPool(_poolId) validAmount(_amount) nonReentrant {\n        PoolInfo storage pool = pools[_poolId];\n        UserInfo storage user = users[_poolId][msg.sender];\n        require(pool.token.balanceOf(msg.sender) >= _amount, \"Insufficient balance\");\n\n        if (user.amount > 0) {\n            // User had already staked, distribute reward\n            _distributeReward(_poolId, pool, user);\n        }\n    \n        user.amount += _amount;\n        user.depositDate = block.timestamp;\n\n        pool.token.transferFrom(msg.sender, address(this), _amount);\n\n        emit Staked(msg.sender, _poolId, _amount);\n    }\n\n\n    function _calculateReward(uint256 _poolId, PoolInfo storage _pool, UserInfo storage _user) internal view returns (uint256) {\n        uint256 pending = _user.amount * 100000\n            * (block.timestamp - _user.depositDate) / 60 / 60 / 24   // Datetime pro rata should be / 60 / 60 / 24 but I m going to change it so we can show ma'am interst happening faster \n            * _pool.yield / 1 / 100 / 365                          // Pool yield (First / 100 is for 2 decimals, second is for %) and should be / 100 / 100 / 365\n            * getLastPrice(_poolId) / getLastHappyPrice();           // Adjustment to price\n\n        return pending;\n    }\n\n\n    function calculateRewardDebug(uint256 _poolId, address _user) external view returns (uint256 userAmount, uint256 delta, uint256 yield, uint256 lastPrice, uint256 lastHappyPrice) {\n        PoolInfo storage pool = pools[_poolId];\n        UserInfo storage user = users[_poolId][_user];\n\n        userAmount = user.amount;\n        delta = block.timestamp - user.depositDate;\n        yield = pool.yield;\n        lastPrice = getLastPrice(_poolId);\n        lastHappyPrice = getLastHappyPrice();\n    }\n\n\n    function _distributeReward(uint256 _poolId, PoolInfo storage _pool, UserInfo storage _user) internal {\n        uint256 pending = _calculateReward(_poolId, _pool, _user);\n        if (pending > 0) {\n            happy.mint(address(this), pending);\n            happy.transfer(msg.sender, pending);\n\n            _user.depositDate = block.timestamp;\n\n            emit Redeemed(msg.sender, _poolId, pending);\n        }\n    }\n\n\n    // If this function is called with 0 as amount, it withdraw only the reward\n    function unstake(uint256 _poolId, uint256 _amount) external validPool(_poolId) nonReentrant {\n        PoolInfo storage pool = pools[_poolId];\n        UserInfo storage user = users[_poolId][msg.sender];\n        require(_amount <= user.amount, \"Insufficient staked amount\");\n\n        _distributeReward(_poolId, pool, user);\n\n        if (_amount > 0) {\n            user.amount -= _amount;\n            pool.token.transfer(msg.sender, _amount);\n        }\n\n        emit Unstaked(msg.sender, _poolId, _amount);\n    }\n\n\n    function pendingReward(uint256 _poolId, address _user) external view validPool(_poolId) returns (uint256) {\n        PoolInfo storage pool = pools[_poolId];\n        UserInfo storage user = users[_poolId][_user];\n\n        return _calculateReward(_poolId, pool, user);\n    }\n\n\n    function getLastPrice(uint256 _poolId) public view validPool(_poolId) returns (uint256) {        \n        PoolInfo storage pool = pools[_poolId];\n\n        (\n            /*uint80 roundId*/,\n            int price,\n            /*uint startAt*/,\n            /*uint timestamp*/,\n            /*uint80 answeredInRound*/\n        ) = pool.priceFeed.latestRoundData();\n\n        uint256 lastPrice = uint256(price);\n        if (pool.token.decimals() != 18) {\n            lastPrice *= 10 ** (18 - pool.token.decimals());\n        }\n\n        return lastPrice;\n    }\n\n\n    function getLastHappyPrice() public view returns (uint256) {\n        (\n            /*uint80 roundId*/,\n            int price,\n            /*uint startAt*/,\n            /*uint timestamp*/,\n            /*uint80 answeredInRound*/\n        ) = happyPriceFeed.latestRoundData();\n\n        return uint256(price);\n    }\n\n}\n",
  "sourcePath": "D:\\SEM6\\bb2\\contracts\\HappyChef.sol",
  "compiler": {
    "name": "solc",
    "version": "0.8.3+commit.8d00100c.Emscripten.clang"
  },
  "schemaVersion": "3.4.7",
  "updatedAt": "2022-05-04T14:10:16.250Z",
  "devdoc": {
    "kind": "dev",
    "methods": {
      "owner()": {
        "details": "Returns the address of the current owner."
      },
      "renounceOwnership()": {
        "details": "Leaves the contract without owner. It will not be possible to call `onlyOwner` functions anymore. Can only be called by the current owner. NOTE: Renouncing ownership will leave the contract without an owner, thereby removing any functionality that is only available to the owner."
      },
      "transferOwnership(address)": {
        "details": "Transfers ownership of the contract to a new account (`newOwner`). Can only be called by the current owner."
      }
    },
    "version": 1
  },
  "userdoc": {
    "kind": "user",
    "methods": {},
    "version": 1
  }
}